:020000040000FA
:100000000C9435010C9466010C9466010C94660105
:100010000C9466010C9466010C9466010C946601C4
:100020000C9466010C9466010C9466010C946601B4
:100030000C9466010C9466010C9466010C946601A4
:100040000C9466010C9466010C9466010C94660194
:100050000C9466010C9466010C9466010C941006D5
:100060000C9466010C9466010C9466010C94660174
:100070000C9466010C9466010C9466010C94660164
:100080000C9466010C9466010C9466010C94660154
:100090000C9466010C9466010C9466010C945A064B
:1000A0000C9466010C9466010C9466010C94660134
:1000B0000C9466010C9466010C9466010C94660124
:1000C0000C9466010C9466010C9466010C94660114
:1000D0000C9466010C9466010C9466010C94660104
:1000E0000C9466010C9405020C94E6010C94A00497
:1000F0000C941C020C9412020C94BD090C94240262
:100100000C9409020C942E020C9438020C943202C6
:100110000C9420020C9499020C942A020C946D0405
:100120000C94FD010C9488010C9410030C94EB01C9
:100130000C9423030C9400030C940C020C948F0772
:100140000C9489010C9401020C9457030C942A031B
:100150000C943C020C9401030C9487010C9416023D
:1001600000000A0B02090C0D0E0807030401000031
:10017000000000000000000000000000000000007F
:10018000000000000000000000000000121110003C
:10019000000000000000000000000000000000005F
:1001A00000000000000000002200250028002B00B5
:1001B0002E003100340002010000050108010B018E
:1001C00000002100240027002A002D003000330009
:1001D00001010000040107010A01050505050705E5
:1001E00008080808020202020A0A080804040404B3
:1001F00001010101010101010303030303030303DF
:10020000040707070C0C0C0C0C0C0C0C020202026D
:1002100006060606060606060B0B0B0B0B0B0B0B56
:100220000102102020080810204010204080020108
:1002300002010804020101020408102040808040ED
:1002400020100804020180040201804020100804EC
:10025000020108040201010204081020408001028A
:100260000408102040808F07BD0911241FBECFEF66
:10027000D1E2DEBFCDBF00E00CBF23E0A8E7B2E0D3
:1002800001C01D92A938B207E1F712E0A0E0B2E088
:10029000E2E5F8E100E00BBF02C007900D92A8373D
:1002A000B107D9F711E0C4E3D1E000E006C021971F
:1002B0000109802FFE010E94F909C333D10780E0B4
:1002C0000807A9F70E94D3070C94170C0C940000A0
:1002D00090E0FC01E05EFD4F249186529E4FFC01B0
:1002E0008491882399F090E0880F991FFC01E054D5
:1002F000FE4FA591B491FC01EA55FE4F8591949172
:100300008FB7F894EC91E22BEC938FBF089508958A
:100310000895AF92BF92CF92DF92EF92FF920F9328
:100320001F93CF93DF936C017B018B01040F151F8B
:10033000EB015E01AE18BF08C017D10759F06991F3
:10034000D601ED91FC910190F081E02DC601199547
:10035000892B79F7C501DF91CF911F910F91FF9004
:10036000EF90DF90CF90BF90AF900895282F30E0AE
:10037000F901E05AFE4F9491F901E05EFD4F44917E
:1003800026523E4FF9012491222309F435C09923C6
:1003900011F191509231F8F4E92FF0E08827EC52F6
:1003A000FE4F8F4F0C94F90905020902E601FD0189
:1003B0000102EB010C02120216021C0220022402AE
:1003C0002A022E02EB01320238023C0280918000A8
:1003D0008F7780938000E22FF0E0EE0FFF1FEA5549
:1003E000FE4FA591B4918FB7F894EC91611148C07C
:1003F00040954E234C938FBF0895809180008F7D50
:10040000E8CF80918000877FE4CF84B58F7784BD6B
:10041000E2CF84B58F7DFBCF8091B0008F77809342
:10042000B000D9CF8091B0008F7DF9CF809190003E
:100430008F7780939000CFCF809190008F7DF9CF00
:1004400080919000877FF5CF8091A0008F77809377
:10045000A000C1CF8091A0008F7DF9CF8091A00036
:10046000877FF5CF809120018F7780932001B3CFD4
:10047000809120018F7DF9CF80912001877FF5CF7A
:100480004E2BB8CF3FB7F89480912B0390912C035B
:10049000A0912D03B0912E0326B5A89B05C02F3F38
:1004A00019F00196A11DB11D3FBFBA2FA92F982F9A
:1004B0008827BC01CD01620F711D811D911D42E095
:1004C000660F771F881F991F4A95D1F708958F925D
:1004D0009F92AF92BF92CF92DF92EF92FF924B0129
:1004E0005C010E9442026B017C010E9442026C1975
:1004F0007D098E099F09683E734081059105A8F327
:1005000021E0821A9108A108B10888EEC80E83E0A4
:10051000D81EE11CF11C81149104A104B10429F737
:10052000FF90EF90DF90CF90BF90AF909F908F9013
:10053000089508952091B902260F3327331F2132E1
:100540003105ECF420910203FC0190E080E02430BE
:1005500069F082E00895A091B9022191AC0147565B
:100560005D4FA40FB52FB11D2C930196861798F3FC
:100570008091B902680F6093B90280E0089581E02C
:1005800008951092020381E0809301031092DC022F
:1005900061E084E10E94B60161E085E10E94B6015C
:1005A000E9EBF0E080818E7F808380818D7F808386
:1005B00088E48093B80085E48093BC000895CF93CD
:1005C000DF9391E0909398028823B9F0C091B8002E
:1005D000D091BA008091BC008A7B8093BC0060E01F
:1005E00084E10E94B60160E085E10E94B6010E94AC
:1005F000C102D093BA00C093B800DF91CF910895A3
:100600000895E091360380913503E81730F4F0E067
:10061000E858FD4F808190E008958FEF9FEF089597
:1006200090913603809135032FEF3FEF981748F4F0
:10063000E92FF0E0E858FD4F208130E09F5F909374
:100640003603C90108958091350390913603891BC3
:10065000990B0895CF92DF92EF92FF920F931F9321
:10066000CF93DF937C01CB018A01209108032223E1
:1006700089F0EB016B01C40ED51ECC15DD0569F0C8
:100680006991D701ED91FC910190F081E02DC701B6
:100690001995F3CF642F0E949A02C801DF91CF9180
:1006A0001F910F91FF90EF90DF90CF900895CF931F
:1006B000DF931F92CDB7DEB7698320910803222311
:1006C000F9F020913303203258F021E030E0FC01B2
:1006D0003383228390E080E00F90DF91CF910895E3
:1006E00080913403E82FF0E0E75FFC4F998190831D
:1006F0008F5F809334038093330381E090E0ECCFED
:1007000061E0CE0101960E949A02F7CFCF92DF926C
:10071000EF92FF920F931F93CF93DF93FC01C4815D
:1007200021E020930803C093290310923403109210
:1007300033038385682B89E493E00E945703D091AB
:100740003303D13208F092C00E9442026B017C0157
:1007500080910203811165C082E08093020381E0F1
:10076000809301038FEF809300031092FF02D093D8
:10077000FE02A9E0B3E0EEEDF2E080E0D81385C020
:100780001092DD028091DD02CC0FC82BC093DD02F8
:100790008091DC02813009F07CC01092DC020E9462
:1007A00042026B017C018091DD028093BB0080914D
:1007B000040390910503A0910603B0910703892BD0
:1007C0008A2B8B2B99F00E94420200910403109116
:1007D000050320910603309107036C197D098E09EA
:1007E0009F090617170728073907E0F18091BC0019
:1007F00083FDD9CF85EC8093BC000E9442026B013F
:100800007C0180910203823009F445C0809100038D
:100810008F3F61F180910003803241F180910003AC
:1008200025C08091040390910503A0910603B09127
:100830000703892B8A2B8B2B09F48ACF0E94420253
:1008400000910403109105032091060330910703E2
:100850006C197D098E099F090617170728073907A4
:1008600008F076CF809103030E94DF0210923403D8
:100870001092330310920803DF91CF911F910F91D3
:10088000FF90EF90DF90CF9008959D9191938F5FAF
:1008900075CF85EEB0CF8091040390910503A091B0
:1008A0000603B0910703892B8A2B8B2B09F4A9CF60
:1008B0000E94420200910403109105032091060357
:1008C000309107036C197D098E099F0906171707D8
:1008D0002807390708F095CFC5CF90E080E008954C
:1008E0000F931F93CF938C01C62F0E9486036C2F0A
:1008F0006460C8010E9486036C2F6B7FC8010E9450
:10090000860383EC90E00197F1F7CF911F910F914F
:1009100008950F931F93CF93DF938C01D62FC42F8D
:10092000607F642B0E94700480E1D89FB001112485
:100930006C2BC801DF91CF911F910F910C94700423
:1009400041E00E94890481E090E00895CF93DF9315
:1009500000D000D01F921F92CDB7DEB798E0E7E03D
:10096000F2E0DE01119601900D929A95E1F79091D7
:100970005D03961710F46FEF690F262F30E0220FFA
:10098000331F41E050E04C0F5D1F240F351FF9016C
:100990006081680F606840E085E593E028960FB6B7
:1009A000F894DEBF0FBECDBFDF91CF910C948904C8
:1009B0008F929F92AF92BF920F931F93CF93DF932B
:1009C000CDB7DEB7A1970FB6F894DEBF0FBECDBF8F
:1009D00019A2423008F44AE08E010F5D1F4F842EA9
:1009E000912CB12CA12CA50194010E94D709E62FCE
:1009F000B901CA01EA3044F5E05DD801EE938D01FA
:100A0000232B242B252B79F790E080E0109769F0B9
:100A1000FD0101900020E9F73197AF014A1B5B0B04
:100A2000BD0185E593E00E948901A1960FB6F89477
:100A3000DEBF0FBECDBFDF91CF911F910F91BF9051
:100A4000AF909F908F900895E95CD7CFCF92DF92BF
:100A5000EF92FF926C01990FEE08FF08F7FE16C0A7
:100A600041E06DE285E593E00E94890466277727DF
:100A7000CB016C197D098E099F094AE00E94D804B8
:100A80000196FF90EF90DF90CF9008954AE0C70164
:100A9000B601FF90EF90DF90CF900C94D804FC014A
:100AA00001900020E9F73197AF01481B590BBC01B9
:100AB00085E593E00C94890140E061E085E593E0F1
:100AC0000E9489048BE39FE10197F1F760E080E0E9
:100AD0000E94A604E1E6F3E04481558160817181C2
:100AE00085E593E00E94890163E080E00E94A6040E
:100AF0008DE292E00E944F0563E088E00E94A60428
:100B000080913D0390913E030E94260563E08BE0B7
:100B10000E94A60480914103909142030C94260503
:100B2000CF93DF93EC0188819981009711F00E94A7
:100B30009D0A198218821D821C821B821A82DF91F3
:100B4000CF910895EF92FF920F931F93CF93DF936E
:100B5000EC017B018A0188819981009729F02A8123
:100B60003B812417350788F4B8016F5F7F4F0E94DF
:100B7000260B0097C9F0998388831B830A832C81F5
:100B80003D81232B11F4FC0110821D830C83B701DE
:100B9000888199810E94100CCE01DF91CF911F9125
:100BA0000F91FF90EF900895CE010E949005F4CF31
:100BB00085ED8093BC008091040390910503A09182
:100BC0000603B09107030796A11DB11D23E0B6955A
:100BD000A795979587952A95D1F72091BC0024FD7C
:100BE00003C010920203089540910403509105033D
:100BF0006091060370910703452B462B472B69F341
:100C00000097A105B10541F025E32A95F1F7000011
:100C10000197A109B109E1CF809103030C94DF0290
:100C20001F920F920FB60F9211242F933F938F9321
:100C30009F93AF93BF938091370390913803A09116
:100C40003903B0913A0330912A0323E0230F2D3763
:100C500058F50196A11DB11D20932A0380933703F7
:100C600090933803A0933903B0933A0380912B03F8
:100C700090912C03A0912D03B0912E030196A11DFC
:100C8000B11D80932B0390932C03A0932D03B0935D
:100C90002E03BF91AF919F918F913F912F910F9014
:100CA0000FBE0F901F90189526E8230F0296A11DE6
:100CB000B11DD2CF1F920F920FB60F9211240BB617
:100CC0000F922F933F934F935F936F937F938F93E5
:100CD0009F93AF93BF93EF93FF938091B900887F69
:100CE000803609F44DC008F040C0883209F4A9C02C
:100CF00028F5803109F49DC0C8F4882309F4FBC0AD
:100D0000883009F496C0FF91EF91BF91AF919F9108
:100D10008F917F916F915F914F913F912F910F90A4
:100D20000BBE0F900FBE0F901F901895883109F4DD
:100D300088C0803241F78093000314C0803409F4E6
:100D40009DC040F48033B9F38833E9F68093000303
:100D500085ECB0C0803509F485C0883509F496C0AB
:100D6000883489F60E94D805CECF883909F48CC022
:100D700038F5883729F050F4883611F0803719F6A5
:100D800083E0809302031092DB0257C0883809F495
:100D90007BC0803919F0803809F0B5CF8091DB0233
:100DA000803208F071C0E091DB0281E08E0F809309
:100DB000DB028091BB00F0E0E554FD4F80833DC035
:100DC000803B39F0E0F4803A09F479C0883A09F0C0
:100DD0009ACF84E0809302031092BA021092B90273
:100DE000E0913103F091320319958091B90281119C
:100DF0000FC081E08093B9021092990209C0803C33
:100E000009F4A6CF883C09F4A3CF883B09F07BCF37
:100E1000E091BA0281E08E0F8093BA02F0E0E756CB
:100E2000FD4F80818093BB009091BA028091B902FE
:100E300029C08091DD028093BB0085EC8093BC00CB
:100E400062CF9091FF028091FE02981758F5E091D1
:100E5000FF0281E08E0F8093FF02F0E0E252FD4F2F
:100E60008081E9CFE091FF0281E08E0F8093FF0245
:100E70008091BB00F0E0E252FD4F80839091FF0231
:100E80008091FE029817C8F285E8D8CFE091FF0262
:100E900081E08E0F8093FF028091BB00F0E0E25270
:100EA000FD4F80838091010381115CCF81E08093AD
:100EB000DC0284EA8093BC001092020324CF85EC0C
:100EC0008093BC00109202038091DB02803230F4E8
:100ED000E091DB02F0E0E554FD4F10826091DB020F
:100EE00070E0E0912F03F09130038BEB92E01995C5
:100EF0001092DB0208CF1092000334CFFC01118264
:100F000010821382128215821482FB01019000204C
:100F1000E9F73197AF01461B570B0C94A205E9E4A2
:100F2000F3E01382128288EE93E0A0E0B0E08483C5
:100F30009583A683B78383E192E09183808364E302
:100F400072E087E693E00E947E076DE372E08DE633
:100F500093E00E947E0765E472E083E793E00E94DD
:100F60007E0763E572E089E793E00E947E076EE505
:100F700072E08FE793E00E947E0766E772E081E609
:100F800093E00E947E07E5E5F3E01382128285E29A
:100F900092E0918380838FE3848384E1818784E07E
:100FA000828713860895789484B5826084BD84B561
:100FB000816084BD85B5826085BD85B5816085BD54
:100FC00080916E00816080936E001092810080910C
:100FD0008100826080938100809181008160809394
:100FE0008100809180008160809380008091B100B9
:100FF00084608093B1008091B00081608093B000E4
:101000008091910082608093910080919100816035
:1010100080939100809190008160809390008091F6
:10102000A10082608093A1008091A10081608093E3
:10103000A1008091A00081608093A0008091210197
:101040008260809321018091210181608093210140
:101050008091200181608093200180917A008460DA
:1010600080937A0080917A00826080937A008091E8
:101070007A00816080937A0080917A008068809302
:101080007A001092C10083E00E94680184E00E940F
:10109000680185E00E94680186E00E94680187E09F
:1010A0000E94680188E00E9468018DE00E9468014A
:1010B00086E10E94680160E086E10E94B60160E07E
:1010C00083E00E94B601109236031092350310920D
:1010D0003403109233030E94C10287E891E0909399
:1010E00032038093310388E891E09093300380933A
:1010F0002F0310925A0380915F03823018F098E01A
:1011000090935A0380935D0362E370E080E090E087
:101110000E9467026091600385E593E00E94860368
:1011200068EE73E080E090E00E94670260E385E58E
:1011300093E00E947004CBE4D6E4CE010197F1F76E
:1011400060E385E593E00E9470042197F1F760E386
:1011500085E593E00E94700483E592E00197F1F742
:1011600060E285E593E00E94700460915A0360623A
:1011700040E085E593E00E94890484E080935B036E
:1011800040E06CE085E593E00E94890440E061E086
:1011900085E593E00E948904CBE3DFE1CE0101976E
:1011A000F1F782E080935C0340E066E085E593E040
:1011B0000E94890440E062E085E593E00E94890492
:1011C0002197F1F788E08093600360E085E593E084
:1011D0000E94860361E086E00E94A60485E692E014
:1011E0000E944F0562E086E00E94A6048EE692E02F
:1011F0000E944F0560ED77E080E090E00E9467027A
:101200000E945C05DD24D39400E010E0EE24E3941A
:10121000F12C2FB7F8948091370390913803A09167
:101220003903B0913A032FBF4091450350914603D3
:101230006091470370914803841B950BA60BB70B75
:10124000883E9340A105B10508F449C02FB7F89432
:101250008091370390913803A0913903B0913A03FC
:101260002FBF8093450390934603A0934703B09309
:101270004803C09100026C2F8DE00E94B601CD257D
:10128000C093000280914303909144030196909390
:10129000440380934303809141039091420301965C
:1012A000909342038093410320913F033091400388
:1012B0002F5F3F4F3093400320933F03CC9769F457
:1012C00080913D0390913E03019690933E0380935D
:1012D0003D0310924203109241030E945C05C091AD
:1012E0003D03D0913E03C330D105BCF4F0923C03E2
:1012F000E0923B036091670370916803611571058B
:1013000069F140916B0350916C0381E693E00E9478
:10131000A20561E083E00E94B60123972A9740F579
:1013200061E084E00E94B60161E085E00E94B601C0
:1013300060916D0370916E0361157105A1F040918C
:1013400071035091720381E693E00E94A20501159A
:10135000110509F45ECF0E9400005BCF81E693E0A7
:101360000E949005D6CF81E693E00E949005EFCFD2
:1013700060E083E00E94B601EACFCF93DF938091D3
:10138000610390916203009711F00E949D0AC5E8E5
:10139000D3E0269788819981009711F00E949D0AD9
:1013A00083E0C736D807A9F7DF91CF910895A1E26E
:1013B0001A2EAA1BBB1BFD010DC0AA1FBB1FEE1FCF
:1013C000FF1FA217B307E407F50720F0A21BB30B1A
:1013D000E40BF50B661F771F881F991F1A9469F796
:1013E00060957095809590959B01AC01BD01CF01F2
:1013F0000895EE0FFF1F881F8BBF0790F691E02D19
:1014000019940F931F93CF93DF938230910510F4BB
:1014100082E090E0E0918703F091880330E020E0E3
:10142000B0E0A0E0309799F42115310509F44AC0E5
:10143000281B390B24303105D8F58A819B81611531
:10144000710589F1FB0193838283FE0111C0408104
:1014500051810281138148175907E0F04817590755
:1014600099F4109761F012960C93129713961C93AF
:101470003296CF01DF91CF911F910F910895009384
:10148000870310938803F4CF2115310551F04217DB
:10149000530738F0A901DB019A01BD01DF01F80112
:1014A000C1CFEF01F9CF9093880380938703CDCF0D
:1014B000FE01E20FF31F819391932250310939838A
:1014C0002883D7CF2091850330918603232B41F4C5
:1014D0002091030230910402309386032093850308
:1014E00020910102309102022115310541F42DB7FE
:1014F0003EB74091050250910602241B350BE09146
:101500008503F0918603E217F307A0F42E1B3F0B2F
:101510002817390778F0AC014E5F5F4F2417350765
:1015200048F04E0F5F1F50938603409385038193CD
:1015300091939FCFF0E0E0E09CCFCF93DF930097B3
:10154000E9F0FC01329713821282A0918703B091D7
:101550008803ED0130E020E01097A1F42081318173
:10156000820F931F20918503309186032817390736
:1015700009F061C0F0938603E0938503DF91CF917A
:101580000895EA01CE17DF07E8F54A815B819E01E5
:1015900041155105B1F7E901FB83EA83499159915E
:1015A000C40FD51FEC17FD0761F48081918102966D
:1015B000840F951FE90199838883828193819B839E
:1015C0008A83F0E0E0E012968D919C91139700974A
:1015D000B9F52D913C911197CD010296820F931F81
:1015E00020918503309186032817390739F6309703
:1015F00051F51092880310928703B0938603A0934D
:101600008503BCCFD383C28340815181840F951F52
:10161000C817D90761F44E5F5F4F88819981480FE1
:10162000591F518340838A819B8193838283211533
:10163000310509F0B0CFF0938803E09387039ECF84
:10164000FD01DC01C0CF13821282D7CF4F925F928F
:101650006F927F928F929F92AF92BF92CF92DF92C2
:10166000EF92FF920F931F93CF93DF938C0100971C
:1016700099F4CB01DF91CF911F910F91FF90EF90E3
:10168000DF90CF90BF90AF909F908F907F906F90A2
:101690005F904F900C94010AFC01E60FF71F9C012C
:1016A00022503109E217F30708F4AEC0D901CD91F9
:1016B000DC911197C617D70720F1C530D10578F016
:1016C000CE0104978617970750F0C61BD70B2297B9
:1016D000C193D1936D937C93CF010E949D0AC80161
:1016E000DF91CF911F910F91FF90EF90DF90CF90FE
:1016F000BF90AF909F908F907F906F905F904F9032
:1017000008955B01AC1ABD0A4C018C0E9D1EA09180
:101710008703B0918803512C412CF12CE12C1097B8
:1017200031F580918503909186038815990509F01C
:101730005CC04616570608F058C08091010290918F
:101740000202009741F48DB79EB740910502509177
:101750000602841B950BE817F90708F055C0F093B3
:101760008603E0938503F90171836083B8CF8D917F
:101770009C91119712966C90129713967C901397E8
:10178000A815B90559F56C0142E0C40ED11CCA1464
:10179000DB0420F1AC014A195B09DA0112961597B6
:1017A00080F06282738251834083D9016D937C9370
:1017B000E114F10471F0D7011396FC93EE931297A4
:1017C0008ECF22968C0F9D1FF90191838083F301A8
:1017D000EFCFF0938803E093870381CF4816590633
:1017E00008F42C017D01D3019ACFCB010E94010A9C
:1017F0007C01009749F0AE01B8010E94070CC801B6
:101800000E949D0A87016BCF10E000E068CFFB01CA
:10181000DC0102C001900D9241505040D8F708956C
:10182000FB01DC0101900D920020E1F7089511E029
:10183000C4E3D1E000E006C0802FFE010E94F90958
:101840002196011DC533D10780E00807A9F7F89458
:10185000FFCF010000890380000000400014005405
:10186000000000000057032A036D04000323031047
:1018700003010300000000A00489016D04990254D3
:1018800049454D504F004C4C454E414E444F004C45
:101890004156414E444F0043454E545249465547E8
:1018A000414E444F00454E4A554147414E444F003A
:1018B000455350455241004C415641444F5241001E
:0A18C0005645522020312E30000062
:10E000000D9489F10D94B2F10D94B2F10D94B2F129
:10E010000D94B2F10D94B2F10D94B2F10D94B2F1F0
:10E020000D94B2F10D94B2F10D94B2F10D94B2F1E0
:10E030000D94B2F10D94B2F10D94B2F10D94B2F1D0
:10E040000D94B2F10D94B2F10D94B2F10D94B2F1C0
:10E050000D94B2F10D94B2F10D94B2F10D94B2F1B0
:10E060000D94B2F10D94B2F10D94B2F10D94B2F1A0
:10E070000D94B2F10D94B2F10D94B2F10D94B2F190
:10E080000D94B2F10D94B2F10D94B2F10D94B2F180
:10E090000D94B2F10D94B2F10D94B2F10D94B2F170
:10E0A0000D94B2F10D94B2F10D94B2F10D94B2F160
:10E0B0000D94B2F10D94B2F10D94B2F10D94B2F150
:10E0C0000D94B2F10D94B2F10D94B2F10D94B2F140
:10E0D0000D94B2F10D94B2F10D94B2F10D94B2F130
:10E0E0000D94B2F141546D656761323536300041AF
:10E0F000726475696E6F206578706C6F72657220DE
:10E1000073746B3530305632206279204D4C530099
:10E11000426F6F746C6F616465723E004875683F52
:10E1200000436F6D70696C6564206F6E203D200048
:10E130004350552054797065202020203D20005FF9
:10E140005F4156525F415243485F5F3D2000415658
:10E1500052204C696243205665723D20004743437C
:10E160002056657273696F6E203D20004350552024
:10E1700049442020202020203D20004C6F7720663D
:10E18000757365202020203D20004869676820665F
:10E190007573652020203D200045787420667573D6
:10E1A00065202020203D20004C6F636B2066757336
:10E1B000652020203D20004D617220203720323024
:10E1C000313300312E362E3800342E332E350056A2
:10E1D00023202020414444522020206F7020636F70
:10E1E00064652020202020696E73747275637469E1
:10E1F0006F6E2061646472202020496E74657272B3
:10E20000757074006E6F20766563746F7200726A49
:10E210006D702020006A6D70200057686174207056
:10E220006F72743A00506F7274206E6F7420737541
:10E2300070706F72746564004D7573742062652030
:10E2400061206C6574746572002000577269747483
:10E25000696E672045450052656164696E672045B7
:10E26000450045452065727220636E743D00504F35
:10E27000525400303D5A65726F2061646472003FF1
:10E280003D43505520737461747300403D454550C3
:10E29000524F4D207465737400423D426C696E6B41
:10E2A000204C454400453D44756D70204545505215
:10E2B0004F4D00463D44756D7020464C415348001B
:10E2C000483D48656C70004C3D4C69737420492F83
:10E2D0004F20506F72747300513D51756974005234
:10E2E0003D44756D702052414D00563D73686F7707
:10E2F00020696E7465727275707420566563746FF0
:10E30000727300593D506F727420626C696E6B00BD
:10E310002A0011241FBECFEFD1E2DEBFCDBF01E046
:10E320000CBF12E0A0E0B2E0EEE1FDEF03E00BBFB6
:10E3300002C007900D92A030B107D9F712E0A0E01B
:10E34000B2E001C01D92AE30B107E1F70F9460F367
:10E350000D948DFE01E20EBF0FEF0DBF11241FBE05
:10E360000D9460F30D9400F020E030E040ED57E0B4
:10E3700005C0FA013197F1F72F5F3F4F2817390792
:10E38000C0F308959C01260F311DC901A0E0B0E043
:10E390002F5F3F4FABBFFC018791882361F08093D3
:10E3A000C6008091C00086FFFCCF8091C0008064D1
:10E3B0008093C000EACF08958DE08093C6008091DD
:10E3C000C00086FFFCCF8091C00080648093C000B5
:10E3D0008AE08093C6008091C00086FFFCCF8091C8
:10E3E000C00080648093C00008950F94C2F10F9420
:10E3F000DCF10895FC019081992359F09093C600B7
:10E400008091C00086FFFCCF8091C0008064809323
:10E41000C0003196992379F70895282F982F929567
:10E420009F70892F805D8A3308F0895F8093C600D2
:10E430008091C00086FFFCCF8091C00080648093F3
:10E44000C000822F8F70982F905D9A3308F0995FEB
:10E450009093C6008091C00086FFFCCF8091C000E1
:10E4600080648093C00008959C01FB01853691056E
:10E470001CF46330710594F0C90164E670E00F94F8
:10E480002EFE605D7F4F6093C6008091C00086FFC6
:10E49000FCCF8091C00080648093C0002B30310598
:10E4A00014F43297B4F0C90164E670E00F942EFEC4
:10E4B0006AE070E00F942EFE605D7F4F6093C600AF
:10E4C0008091C00086FFFCCF8091C0008064809363
:10E4D000C000C9016AE070E00F942EFEC0968093E0
:10E4E000C6008091C00086FFFCCF8091C000806490
:10E4F0008093C00008951F93182F8EE692EE60E07F
:10E500000F94C2F11093C6008091C00086FFFCCF2B
:10E510008091C00080648093C0000F94DCF11F9153
:10E5200008952F923F924F925F926F927F928F92B7
:10E530009F92AF92BF92CF92DF92EF92FF920F9392
:10E540001F93DF93CF93CDB7DEB762970FB6F894E2
:10E55000DEBF0FBECDBF382E622ECA01DB015C01CB
:10E560006D01772420E2222E2E010894411C511CBB
:10E570008BC081E0A81680E0B80681E0C80680E084
:10E58000D80628F0C601AA27BB270F940DF2BB2797
:10E59000AD2D9C2D8B2D0F940DF28A2D0F940DF225
:10E5A0002092C6008091C00086FFFCCF8091C00001
:10E5B00080648093C0009DE29093C6008091C0006B
:10E5C00086FFFCCF8091C00080648093C0002092C1
:10E5D000C6008091C00086FFFCCF8091C00080649F
:10E5E0008093C00019828601750188249924A1E0D6
:10E5F0003A1651F03A1620F0B2E03B1661F409C029
:10E600000BBFF701779007C0C7010F9477FE782EF4
:10E6100002C0F7017080872D0F940DF22092C60082
:10E620008091C00086FFFCCF8091C0008064809301
:10E63000C000872D8052F401EF70F0708F3520F408
:10E64000E40DF51D708204C0E40DF51D8EE280839B
:10E650000894E11CF11C011D111D0894811C911CE2
:10E6600090E18916910409F0C2CF80E190E0A0E02A
:10E67000B0E0A80EB91ECA1EDB1E198AC2010F9493
:10E68000FAF10F94DCF16A94662009F072CF629679
:10E690000FB6F894DEBF0FBECDBFCF91DF911F91B3
:10E6A0000F91FF90EF90DF90CF90BF90AF909F9031
:10E6B0008F907F906F905F904F903F902F90089534
:10E6C0002F923F924F925F926F927F928F929F9282
:10E6D000AF92BF92CF92DF92EF92FF920F931F9370
:10E6E000DF93CF93CDB7DEB7CD53D1400FB6F894BB
:10E6F000DEBF0FBECDBF01E20EBF0FEF0DBF94B75F
:10E70000F894A89514BE80916000886180936000A1
:10E7100010926000789493FF05C0E0910002F091A0
:10E7200001021995279A2F9A8091C00082608093E8
:10E73000C00080E18093C40088E18093C1000000A4
:10E74000EE24FF24870144E0A42EB12CCC24DD2448
:10E7500024C0C5010197F1F70894E11CF11C011DCB
:10E76000111D21E2E2162EE4F20620E0020720E06D
:10E77000120718F031E0C32ED12CC801B70127ECE5
:10E780003BE140E050E00F9441FE611571058105C9
:10E79000910519F485B1805885B98091C00087FD35
:10E7A00003C0C114D104A9F2A6014F5F5F4FC25E3E
:10E7B000DE4F59834883CE51D140C25EDE4F8881FF
:10E7C0009981CE51D140019711F00D9410FEC05D9A
:10E7D000DE4F19821882C053D14060E0C15DDE4F28
:10E7E0001882CF52D14088249924C35DDE4F19820C
:10E7F0001882CD52D140C05EDE4F188219821A8233
:10E800001B82C052D140CE5CDE4F188219821A8220
:10E810001B82C253D140EE24FF2487010BBFF701B6
:10E8200007911691C45CDE4F19830883CC53D14005
:10E830000D940BFEC25EDE4F28813981CE51D1404E
:10E840002130310509F52091C600C25EDE4F1982E4
:10E850001882CE51D14022C02F5F3F4F4F4F5F4FA4
:10E86000213082E138078AE7480780E0580780F0C6
:10E87000C45CDE4FE881F981CC53D140EF5FFF4F9C
:10E8800019F0EE27FF27099420E030E040E050E047
:10E890008091C00087FFE0CF2091C600C35DDE4FAE
:10E8A00048815981CD52D1404F5F5F4FC35DDE4FEC
:10E8B00059834883CD52D140213209F063C64A3092
:10E8C000510508F05FC60894811C911C53E0851621
:10E8D000910409F059C600E010E018C081E280936D
:10E8E000C6008091C00086FFFCCF8091C00080648C
:10E8F0008093C0002F5F3F4F2931310579F70F9486
:10E90000DCF10F5F1F4F0530110519F020E030E0FA
:10E91000E5CF10920A0210920B0210920C02109294
:10E920000D02109206021092070210920802109235
:10E930000902109202021092030210920402109235
:10E9400005028FEE90EE60E00F94F5F180E191EE1C
:10E9500060E00F94C2F18091C00087FFFCCF9091DE
:10E96000C600903608F09F759032B8F09093C600BC
:10E970008091C00086FFFCCF8091C00080648093AE
:10E98000C000A0E2A093C6008091C00086FFFCCF2B
:10E990008091C00080648093C000983409F4D7C18E
:10E9A0009934B8F4923409F459C1933458F490333B
:10E9B00019F1903308F4E3C59F33A1F1903409F0C5
:10E9C000DEC5BDC0953409F470C1963409F0D7C5D1
:10E9D00098C1923509F42BC2933538F49C3409F46C
:10E9E000F5C1913509F0CBC518C2963509F445C279
:10E9F000993509F0C4C567C483E792EE62E00F94CD
:10EA0000F5F110920602109207021092080210927D
:10EA1000090210920A0210920B0210920C0210923C
:10EA20000D0213C18FE792EE62E00F94F5F18FEEC5
:10EA300090EE60E00F94F5F181E291EE60E00F94CA
:10EA4000C2F187EB91EE60E00F94F5F180E391EE77
:10EA500060E00F94C2F184EE90EE60E00F94F5F167
:10EA60008FE391EE60E00F94C2F186E090E061E008
:10EA700070E00F9434F20F94DCF18DE591EE60E0DC
:10EA80000F94C2F189EC91EE60E00F94F5F18EE401
:10EA900091EE60E00F94C2F183EC91EE60E00F9490
:10EAA000F5F18CE691EE60E00F94C2F18EE10F94E7
:10EAB0000DF288E90F940DF281E00F940DF20F949E
:10EAC000DCF18BE791EE60E00F94C2F119E0E0E039
:10EAD000F0E010935700E4918E2F0F940DF20F94F5
:10EAE000DCF18AE891EE60E00F94C2F1E3E0F0E03F
:10EAF00010935700E4918E2F0F940DF20F94DCF1D8
:10EB000089E991EE60E00F94C2F1E2E0F0E0109349
:10EB10005700E4918E2F0F940DF20F94DCF188EAE8
:10EB200091EE60E00F94C2F1E1E0F0E01093570045
:10EB30001491812F0F940DF20F94DCF107CF8BE825
:10EB400092EE62E00F94F5F18BE492EE60E00F94A8
:10EB5000F5F10F94DCF100E010E019C0C8016F2D51
:10EB60000F947FFEFF2031F489E492EE60E00F9471
:10EB7000C2F10BC0F092C6008091C00086FFFCCFAE
:10EB80008091C00080648093C0000F5F1F4FC80158
:10EB900081519F41A0E0B0E0ABBFFC01F790BAE229
:10EBA000FB1621F0E2E000301E07C1F60F94DCF105
:10EBB0000F94DCF187E592EE60E00F94F5F10F948D
:10EBC000DCF1CC24DD2400E010E01EC0C8010F946D
:10EBD00077FEF82E882331F489E492EE60E00F94FA
:10EBE000C2F10BC08093C6008091C00086FFFCCFAD
:10EBF0008091C00080648093C000FE1419F00894D6
:10EC0000C11CD11C0F5F1F4FC80181519F41A0E063
:10EC1000B0E0ABBFFC01E790FAE2EF1621F022E092
:10EC20000030120799F60F94DCF10F94DCF182E6C4
:10EC300092EE60E00F94C2F1C60161E070E00F94C3
:10EC400034F20F94DCF10F94DCF110920202109276
:10EC50000302109204021092050278CE89E992EE26
:10EC600062E00F94F5F1279A2F9A16C02F9880E052
:10EC700090E0E0EDF7E03197F1F7019684369105E9
:10EC8000C1F72F9A80E090E0E0EDF7E03197F1F7DF
:10EC9000019684369105C1F78091C00087FFE6CFC9
:10ECA0008091C00087FFFCCF64C485EA92EE62E0E9
:10ECB0000F94F5F140910202509103026091040219
:10ECC0007091050281E020E10F9491F2809102029F
:10ECD00090910302A0910402B091050280509F4FD1
:10ECE000AF4FBF4F8093020290930302A0930402A0
:10ECF000B093050280509041A040B04008F426CE69
:10ED0000A4CF83EB92EE62E00F94F5F140910602FE
:10ED100050910702609108027091090280E020E1A1
:10ED20000F9491F28091060290910702A09108023F
:10ED3000B091090280509F4FAF4FBF4F80930602A2
:10ED400090930702A0930802B0930902FFCD80ECD4
:10ED500092EE62E00F94F5F183E792EE60E00F949B
:10ED6000F5F18FE792EE60E00F94F5F18BE892EE0B
:10ED700060E00F94F5F189E992EE60E00F94F5F10F
:10ED800085EA92EE60E00F94F5F183EB92EE60E09D
:10ED90000F94F5F180EC92EE60E00F94F5F187ECC2
:10EDA00092EE60E00F94F5F188ED92EE60E00F9442
:10EDB000F5F18FED92EE60E00F94F5F18AEE92EEB0
:10EDC00060E00F94F5F183E093EEBDCD87EC92EE19
:10EDD00062E00F94F5F181E40F947BF282E40F94EA
:10EDE0007BF283E40F947BF284E40F947BF285E45E
:10EDF0000F947BF286E40F947BF287E40F947BF20E
:10EE000088E40F947BF28AE40F947BF28BE40F94F6
:10EE10007BF28CE40F947BF299CD88ED92EE62E068
:10EE20000F94F5F1772473948824992409C48FED05
:10EE300092EE62E00F94F5F140910A0250910B02BC
:10EE400060910C0270910D0282E020E10F9491F22A
:10EE500080910A0290910B02A0910C02B0910D02D8
:10EE600080509F4FAF4FBF4F80930A0290930B0289
:10EE7000A0930C02B0930D0269CD8AEE92EE62E08F
:10EE80000F94F5F184EE90EE60E00F94F5F18FECC5
:10EE900091EE60E00F94F5F1662477244301CC5D98
:10EEA000DE4F19821882C452D140D401C301B695F5
:10EEB000A79597958795CA5DDE4F88839983AA8326
:10EEC000BB83C652D140CC5DDE4FA881B981C4520C
:10EED000D1401196CC5DDE4FB983A883C452D14096
:10EEE000CD0162E070E00F9434F2B0E2B093C6005E
:10EEF0008091C00086FFFCCF8091C0008064809329
:10EF0000C000EDE2E093C6008091C00086FFFCCF18
:10EF10008091C00080648093C000F0E2F093C6004E
:10EF20008091C00086FFFCCF8091C00080648093F8
:10EF3000C000CA5DDE4FE880F9800A811B81C6529D
:10EF4000D140BB27A12F902F8F2D0F940DF2CA5DBA
:10EF5000DE4F8881C652D1400F940DF2B0E2FB2EF5
:10EF6000F092C6008091C00086FFFCCF8091C00067
:10EF700080648093C0000DE30093C6008091C000C0
:10EF800086FFFCCF8091C00080648093C00010E2B7
:10EF90001093C6008091C00086FFFCCF8091C00016
:10EFA00080648093C0008BBEF3012791C65DDE4F65
:10EFB0002883CA52D140A22EBB24CC24DD2408943D
:10EFC000611C711C811C911C8BBEF3018791282E42
:10EFD0003324442455240894611C711C811C911C09
:10EFE0008BBEF3013791C55DDE4F3883CB52D140E4
:10EFF0000894611C711C811C911C8BBEF30147910C
:10F00000C45DDE4F4883CC52D140ADEFEA2EAFEF66
:10F01000FA2EAFEF0A2FAFEF1A2F6E0C7F1C801E57
:10F02000911E142D032DF22CEE24EA0CFB1C0C1D5A
:10F030001D1D0F940DF220E22093C6008091C000A8
:10F0400086FFFCCF8091C00080648093C000C65DC5
:10F05000DE4F8881CA52D1400F940DF230E23093D6
:10F06000C6008091C00086FFFCCF8091C000806404
:10F070008093C000C45DDE4F8881CC52D1400F9494
:10F080000DF240E24093C6008091C00086FFFCCFA5
:10F090008091C00080648093C000C55DDE4F888190
:10F0A000CB52D1400F940DF250E25093C6008091A4
:10F0B000C00086FFFCCF8091C00080648093C000B8
:10F0C0008FEFE8168FEFF80680E0080780E018075A
:10F0D00031F484E092EE60E00F94C2F1DFC0D80119
:10F0E000C7018070907CA070B0708050904CA040A0
:10F0F000B040D1F52FEF3FE340E050E0E222F322B1
:10F1000004231523CA5DDE4FA880B980CA80DB8046
:10F11000C652D140AE0CBF1CC01ED11EAA0CBB1CD7
:10F12000CC1CDD1C8EE092EE60E00F94C2F1BB2798
:10F13000A12F902F8F2D0F940DF28E2D0F940DF285
:10F1400030E23093C6008091C00086FFFCCF8091F2
:10F15000C00080648093C0004EE34093C60080915D
:10F16000C00086FFFCCF87C08EE09EEFA0E0B0E03D
:10F17000E822F9220A231B239CE0E91694E9F90608
:10F1800090E0090790E0190709F088C0C45DDE4FE0
:10F19000A881CC52D140EA2EFF2400E010E0102FCD
:10F1A0000F2DFE2CEE24C55DDE4FB881CB52D14031
:10F1B000EB0EF11C011D111DD601C501817090706F
:10F1C000A070B070DC0199278827E80EF91E0A1F8D
:10F1D0001B1F20EF30E040E050E0A222B322C42207
:10F1E000D52241E1AA0CBB1CCC1CDD1C4A95D1F7F1
:10F1F000EA0CFB1C0C1D1D1D81E090E0A0E0B0E0BE
:10F20000282239224A225B2235E1220C331C441C7D
:10F21000551C3A95D1F7E20CF31C041D151D57013E
:10F220006801AA0CBB1CCC1CDD1C85E192EE60E0E1
:10F230000F94C2F1C801AA27BB270F940DF2BB2778
:10F24000A12F902F8F2D0F940DF28E2D0F940DF274
:10F2500090E29093C6008091C00086FFFCCF809121
:10F26000C00080648093C000AEE3A093C60080918C
:10F27000C00086FFFCCF8091C00080648093C000F6
:10F28000C601AA27BB270F940DF2BB27AD2D9C2DDD
:10F290008B2D0F940DF28A2D0F940DF20F94DCF14B
:10F2A000CC5DDE4FE881F981C452D140F99709F471
:10F2B0004DCBF4E0EF2EF12C012D112D6E0C7F1CA7
:10F2C000801E911EF2CD83E093EE62E00F94F5F183
:10F2D0008AE192EE60E00F94C2F18091C00087FF56
:10F2E000FCCF1091C6001F751093C6008091C0001E
:10F2F00086FFFCCF8091C00080648093C0000F9493
:10F30000DCF1812F81548A3108F036C1163409F4BA
:10F3100095C0173490F4133409F44EC0143430F40B
:10F320001134F1F0123409F01DC130C0143409F465
:10F3300059C0153409F016C16BC01A3409F4C4C0A1
:10F340001B3438F4173409F48FC0183409F00AC19B
:10F35000A1C01B3409F4D2C01C3409F003C1E8C0B9
:10F360008FEF81B90DC082B1809582B980E090E0C5
:10F37000E0EDF7E03197F1F70196883C9105C1F790
:10F380008091C00087FFEFCF12B8EFC08FEF84B934
:10F390000DC085B1809585B980E090E0E0EDF7E0A3
:10F3A0003197F1F70196883C9105C1F78091C00033
:10F3B00087FFEFCF15B8D9C08FEF87B90DC088B1DF
:10F3C000809588B980E090E0E0EDF7E03197F1F7C3
:10F3D0000196883C9105C1F78091C00087FFEFCF6F
:10F3E00018B8C3C08FEF8AB90DC08BB180958BB9A7
:10F3F00080E090E0E0EDF7E03197F1F70196883C8E
:10F400009105C1F78091C00087FFEFCF1BB8ADC059
:10F410008FEF8DB90DC08EB180958EB980E090E0F0
:10F42000E0EDF7E03197F1F70196883C9105C1F7DF
:10F430008091C00087FFEFCF1EB897C08FEF80BBD1
:10F440000DC081B3809581BB80E090E0E0EDF7E0F6
:10F450003197F1F70196883C9105C1F78091C00082
:10F4600087FFEFCF11BA81C08FEF83BB0DC084B38C
:10F47000809584BB80E090E0E0EDF7E03197F1F714
:10F480000196883C9105C1F78091C00087FFEFCFBE
:10F4900014BA6BC08FEF809301010FC080910201FD
:10F4A00080958093020180E090E0E0EDF7E03197F5
:10F4B000F1F70196883C9105C1F78091C00087FF64
:10F4C000EDCF1092020151C08FEF809304010FC065
:10F4D0008091050180958093050180E090E0E0ED4A
:10F4E000F7E03197F1F70196883C9105C1F78091DB
:10F4F000C00087FFEDCF1092050137C08FEF8093DA
:10F5000007010FC08091080180958093080180E079
:10F5100090E0E0EDF7E03197F1F70196883C910536
:10F52000C1F78091C00087FFEDCF109208011DC088
:10F530008FEF80930A010FC080910B01809580931B
:10F540000B0180E090E0E0EDF7E03197F1F70196F4
:10F55000883C9105C1F78091C00087FFEDCF1092E4
:10F560000B0103C085E292EEEEC98091C00087FFD7
:10F57000FCCF8091C600EAC988E392EEE4C98CE131
:10F5800091EEE1C988249924933011F1943028F444
:10F59000913089F09230B8F408C0953061F195301F
:10F5A000F0F0963009F048C043C02B3109F042C951
:10F5B00091E06BE13FC96227C15DDE4F2883CF52E6
:10F5C000D14092E037C9B22FA0E0622793E032C960
:10F5D000822F90E0A82BB92B622794E02BC92E3004
:10F5E00009F039C3622795E0C05DDE4F19821882A9
:10F5F000C053D1401FC9E1E0F0E0EC0FFD1FC05D3A
:10F60000DE4F08811981C053D140E00FF11F2083E4
:10F610000F5F1F4FC05DDE4F19830883C053D14079
:10F6200062270A171B0709F005C9D80196E002C92D
:10F63000261709F010C303C0973009F0FBC87724E0
:10F640009981933109F412C19431C8F4963009F4C8
:10F65000D8C0973050F4923009F406C1933009F4C1
:10F660006DC0913009F059C253C0913109F477C08F
:10F67000923108F0BBC0903109F04FC2F5C098310B
:10F6800009F487C0993150F4953109F4EFC09531F0
:10F6900008F4C6C1963109F040C2C2C19A3109F4DA
:10F6A0006CC09A3108F491C09B3109F45BC09D3164
:10F6B00009F033C29D81903359F48F81882311F46E
:10F6C0009EE11CC0813011F091E018C098E916C08D
:10F6D000892F807591F0903539F4E0E0F0E089E011
:10F6E0008093570094910AC0983539F4E3E0F0E034
:10F6F00089E080935700949101C090E01A821B82A8
:10F700008D818C831D829E831F8227E030E009C299
:10F710001A8288E08B8381E48C8386E58D8382E581
:10F720008E8389E48F8383E5888780E589878FE5E9
:10F730008A8782E38B872BE030E0F3C18A818139AD
:10F7400041F0823941F0803911F48FE005C080E04A
:10F7500003C082E001C08AE01A828B8344C0772410
:10F76000739482C08D81882311F48EE12CC0813086
:10F7700011F081E028C088E926C01A82E1E0F0E0BB
:10F7800089E08093570084918B831C8224E030E0D1
:10F79000C8C18B81803589F48C81883039F4E2E0EE
:10F7A000F0E089E08093570084910DC0E0E0F0E044
:10F7B00089E080935700849106C0E3E0F0E089E09F
:10F7C0008093570084911A82DFCF8D81836C99E0FA
:10F7D000E1E0F0E0082E90935700E89507B600FCB2
:10F7E000FDCF1A821B8223E030E09BC180EC8A832C
:10F7F000CE5CDE4F188219821A821B82C253D1401E
:10F800008EC18A8190E0A0E0B0E0582F44273327D2
:10F8100022278B8190E0A0E0B0E0DC0199278827C7
:10F82000282B392B4A2B5B2B8D8190E0A0E0B0E098
:10F83000282B392B4A2B5B2B8C8190E0A0E0B0E089
:10F84000BA2FA92F982F8827282B392B4A2B5B2BCF
:10F85000220F331F441F551FC05EDE4F288339839C
:10F860004A835B83C052D1401A8259C13A81C95C34
:10F87000DE4F3883C753D140CA5CDE4F1882C6536F
:10F88000D1408B81C82EDD24CA5CDE4F488159816E
:10F89000C653D140C42AD52A933109F082C0CE5C28
:10F8A000DE4F88819981AA81BB81C253D1408050AB
:10F8B000904CA340B04030F583E0CE5CDE4FE88052
:10F8C000F9800A811B81C253D140F70100935B008C
:10F8D00080935700E89507B600FCFDCFCE5CDE4F65
:10F8E000088119812A813B81C253D14000501F4FAA
:10F8F0002F4F3F4FCE5CDE4F088319832A833B8313
:10F90000C253D140C05EDE4F488159816A817B81FC
:10F91000C052D140DE011B9631E08C9111962C91A2
:10F9200011971296C75CDE4F2883C953D140C85C3B
:10F93000DE4F1882C853D14090E0C85CDE4FE881AA
:10F94000F981C853D1408E2B9F2B0C01FA01609393
:10F950005B0030935700E89511244E5F5F4F6F4F67
:10F960007F4F0EEFE02E0FEFF02ECE0CDF1CC114F8
:10F97000D10499F685E0C05EDE4F088119812A81A5
:10F980003B81C052D140F80120935B008093570027
:10F99000E89507B600FCFDCF81E180935700E8951C
:10F9A00035C0C05EDE4F88819981AA81BB81C0527B
:10F9B000D140B695A795979587957C018601ABE0D8
:10F9C000AA2EB12CAC0EBD1E0BC0D5016D915D01F0
:10F9D000C7010F947FFE0894E11CF11C01501040F8
:10F9E0000115110591F7A60160E070E0440F551F65
:10F9F000661F771FC05EDE4FE880F9800A811B8199
:10FA0000C052D1404E0D5F1D601F711F1A82C05E33
:10FA1000DE4F488359836A837B83C052D1407FC0C5
:10FA2000FA80C55CDE4FF882CB53D140C65CDE4F16
:10FA30001882CA53D1408B81C82EDD24C65CDE4FAC
:10FA400008811981CA53D140C02AD12A1A828981DA
:10FA5000BE016D5F7F4F843121F59601C05EDE4FA0
:10FA6000E880F9800A811B81C052D1400BBFF701A9
:10FA700087919691DB018C9311969C936E5F7F4FDB
:10FA8000D801C7010296A11DB11DC05EDE4F88835B
:10FA90009983AA83BB83C052D14022503040F1F6F3
:10FAA00036C0C05EDE4F288139814A815B81C052F9
:10FAB000D1400894C108D108760100E010E0089414
:10FAC000C11CD11C0894E11CF11C011D111DE20E8A
:10FAD000F31E041F151F21BDBB27A52F942F832FB5
:10FAE00082BD2F5F3F4F4F4F5F4FF89A80B5DB01CC
:10FAF0008D93BD012E153F054007510761F7C05E8C
:10FB0000DE4F288339834A835B83C052D1409601FC
:10FB10002D5F3F4FFB01108204C080EC8A8322E0FE
:10FB200030E08BE18093C6008091C00086FFFCCF5F
:10FB30008091C00080648093C000C15DDE4FF88179
:10FB4000CF52D140F093C6008091C00086FFFCCF19
:10FB50008091C00080648093C000432F3093C60022
:10FB60008091C00086FFFCCF8091C00080648093AC
:10FB7000C000922F2093C6008091C00086FFFCCF6A
:10FB80008091C00080648093C0008EE08093C600A6
:10FB90008091C00086FFFCCF8091C000806480937C
:10FBA000C00065E1C15DDE4FE880CF52D1406E25D7
:10FBB00069276427FE01319610C090819093C6009A
:10FBC0008091C00086FFFCCF31968091C000806498
:10FBD0008093C0006927215030402115310569F715
:10FBE0006093C6008091C00086FFFCCF8091C0006A
:10FBF00080648093C00085B1805885B9772081F4F6
:10FC0000C15DDE4F0881CF52D1400F5FC15DDE4F35
:10FC10000883CF52D14090E0A0E0B0E00D941AF4F8
:10FC200027982F9880E090E020ED37E0F901319798
:10FC3000F1F7019684369105C9F700008091C00064
:10FC40008D7F8093C00081E180935700E895EE2777
:10FC5000FF270994FFCF90E00D941AF497FB092E2B
:10FC600007260AD077FD04D02ED006D000201AF443
:10FC7000709561957F4F0895F6F7909581959F4F08
:10FC80000895A1E21A2EAA1BBB1BFD010DC0AA1FDD
:10FC9000BB1FEE1FFF1FA217B307E407F50720F0F5
:10FCA000A21BB30BE40BF50B661F771F881F991F70
:10FCB0001A9469F760957095809590959B01AC01B9
:10FCC000BD01CF010895AA1BBB1B51E107C0AA1FAC
:10FCD000BB1FA617B70710F0A61BB70B881F991FED
:10FCE0005A95A9F780959095BC01CD010895F99991
:10FCF000FECF92BD81BDF89A992780B50895262F31
:10FD0000F999FECF1FBA92BD81BD20BD0FB6F89400
:0EFD1000FA9AF99A0FBE01960895F894FFCF63
:00000001FF
