:100000000C9435010C9466010C9466010C94660105
:100010000C9466010C9466010C9466010C946601C4
:100020000C9466010C9466010C9466010C946601B4
:100030000C9466010C9466010C9466010C946601A4
:100040000C9466010C9466010C9466010C94660194
:100050000C9466010C9466010C9466010C941006D5
:100060000C9466010C9466010C9466010C94660174
:100070000C9466010C9466010C9466010C94660164
:100080000C9466010C9466010C9466010C94660154
:100090000C9466010C9466010C9466010C945A064B
:1000A0000C9466010C9466010C9466010C94660134
:1000B0000C9466010C9466010C9466010C94660124
:1000C0000C9466010C9466010C9466010C94660114
:1000D0000C9466010C9466010C9466010C94660104
:1000E0000C9466010C9405020C94E6010C94A00497
:1000F0000C941C020C9412020C94BD090C94240262
:100100000C9409020C942E020C9438020C943202C6
:100110000C9420020C9499020C942A020C946D0405
:100120000C94FD010C9488010C9410030C94EB01C9
:100130000C9423030C9400030C940C020C948F0772
:100140000C9489010C9401020C9457030C942A031B
:100150000C943C020C9401030C9487010C9416023D
:1001600000000A0B02090C0D0E0807030401000031
:10017000000000000000000000000000000000007F
:10018000000000000000000000000000121110003C
:10019000000000000000000000000000000000005F
:1001A00000000000000000002200250028002B00B5
:1001B0002E003100340002010000050108010B018E
:1001C00000002100240027002A002D003000330009
:1001D00001010000040107010A01050505050705E5
:1001E00008080808020202020A0A080804040404B3
:1001F00001010101010101010303030303030303DF
:10020000040707070C0C0C0C0C0C0C0C020202026D
:1002100006060606060606060B0B0B0B0B0B0B0B56
:100220000102102020080810204010204080020108
:1002300002010804020101020408102040808040ED
:1002400020100804020180040201804020100804EC
:10025000020108040201010204081020408001028A
:100260000408102040808F07BD0911241FBECFEF66
:10027000D1E2DEBFCDBF00E00CBF23E0A8E7B2E0D3
:1002800001C01D92A938B207E1F712E0A0E0B2E088
:10029000E2E5F8E100E00BBF02C007900D92A8373D
:1002A000B107D9F711E0C4E3D1E000E006C021971F
:1002B0000109802FFE010E94F909C333D10780E0B4
:1002C0000807A9F70E94D3070C94170C0C940000A0
:1002D00090E0FC01E05EFD4F249186529E4FFC01B0
:1002E0008491882399F090E0880F991FFC01E054D5
:1002F000FE4FA591B491FC01EA55FE4F8591949172
:100300008FB7F894EC91E22BEC938FBF089508958A
:100310000895AF92BF92CF92DF92EF92FF920F9328
:100320001F93CF93DF936C017B018B01040F151F8B
:10033000EB015E01AE18BF08C017D10759F06991F3
:10034000D601ED91FC910190F081E02DC601199547
:10035000892B79F7C501DF91CF911F910F91FF9004
:10036000EF90DF90CF90BF90AF900895282F30E0AE
:10037000F901E05AFE4F9491F901E05EFD4F44917E
:1003800026523E4FF9012491222309F435C09923C6
:1003900011F191509231F8F4E92FF0E08827EC52F6
:1003A000FE4F8F4F0C94F90905020902E601FD0189
:1003B0000102EB010C02120216021C0220022402AE
:1003C0002A022E02EB01320238023C0280918000A8
:1003D0008F7780938000E22FF0E0EE0FFF1FEA5549
:1003E000FE4FA591B4918FB7F894EC91611148C07C
:1003F00040954E234C938FBF0895809180008F7D50
:10040000E8CF80918000877FE4CF84B58F7784BD6B
:10041000E2CF84B58F7DFBCF8091B0008F77809342
:10042000B000D9CF8091B0008F7DF9CF809190003E
:100430008F7780939000CFCF809190008F7DF9CF00
:1004400080919000877FF5CF8091A0008F77809377
:10045000A000C1CF8091A0008F7DF9CF8091A00036
:10046000877FF5CF809120018F7780932001B3CFD4
:10047000809120018F7DF9CF80912001877FF5CF7A
:100480004E2BB8CF3FB7F89480912B0390912C035B
:10049000A0912D03B0912E0326B5A89B05C02F3F38
:1004A00019F00196A11DB11D3FBFBA2FA92F982F9A
:1004B0008827BC01CD01620F711D811D911D42E095
:1004C000660F771F881F991F4A95D1F708958F925D
:1004D0009F92AF92BF92CF92DF92EF92FF924B0129
:1004E0005C010E9442026B017C010E9442026C1975
:1004F0007D098E099F09683E734081059105A8F327
:1005000021E0821A9108A108B10888EEC80E83E0A4
:10051000D81EE11CF11C81149104A104B10429F737
:10052000FF90EF90DF90CF90BF90AF909F908F9013
:10053000089508952091B902260F3327331F2132E1
:100540003105ECF420910203FC0190E080E02430BE
:1005500069F082E00895A091B9022191AC0147565B
:100560005D4FA40FB52FB11D2C930196861798F3FC
:100570008091B902680F6093B90280E0089581E02C
:1005800008951092020381E0809301031092DC022F
:1005900061E084E10E94B60161E085E10E94B6015C
:1005A000E9EBF0E080818E7F808380818D7F808386
:1005B00088E48093B80085E48093BC000895CF93CD
:1005C000DF9391E0909398028823B9F0C091B8002E
:1005D000D091BA008091BC008A7B8093BC0060E01F
:1005E00084E10E94B60160E085E10E94B6010E94AC
:1005F000C102D093BA00C093B800DF91CF910895A3
:100600000895E091360380913503E81730F4F0E067
:10061000E858FD4F808190E008958FEF9FEF089597
:1006200090913603809135032FEF3FEF981748F4F0
:10063000E92FF0E0E858FD4F208130E09F5F909374
:100640003603C90108958091350390913603891BC3
:10065000990B0895CF92DF92EF92FF920F931F9321
:10066000CF93DF937C01CB018A01209108032223E1
:1006700089F0EB016B01C40ED51ECC15DD0569F0C8
:100680006991D701ED91FC910190F081E02DC701B6
:100690001995F3CF642F0E949A02C801DF91CF9180
:1006A0001F910F91FF90EF90DF90CF900895CF931F
:1006B000DF931F92CDB7DEB7698320910803222311
:1006C000F9F020913303203258F021E030E0FC01B2
:1006D0003383228390E080E00F90DF91CF910895E3
:1006E00080913403E82FF0E0E75FFC4F998190831D
:1006F0008F5F809334038093330381E090E0ECCFED
:1007000061E0CE0101960E949A02F7CFCF92DF926C
:10071000EF92FF920F931F93CF93DF93FC01C4815D
:1007200021E020930803C093290310923403109210
:1007300033038385682B89E493E00E945703D091AB
:100740003303D13208F092C00E9442026B017C0157
:1007500080910203811165C082E08093020381E0F1
:10076000809301038FEF809300031092FF02D093D8
:10077000FE02A9E0B3E0EEEDF2E080E0D81385C020
:100780001092DD028091DD02CC0FC82BC093DD02F8
:100790008091DC02813009F07CC01092DC020E9462
:1007A00042026B017C018091DD028093BB0080914D
:1007B000040390910503A0910603B0910703892BD0
:1007C0008A2B8B2B99F00E94420200910403109116
:1007D000050320910603309107036C197D098E09EA
:1007E0009F090617170728073907E0F18091BC0019
:1007F00083FDD9CF85EC8093BC000E9442026B013F
:100800007C0180910203823009F445C0809100038D
:100810008F3F61F180910003803241F180910003AC
:1008200025C08091040390910503A0910603B09127
:100830000703892B8A2B8B2B09F48ACF0E94420253
:1008400000910403109105032091060330910703E2
:100850006C197D098E099F090617170728073907A4
:1008600008F076CF809103030E94DF0210923403D8
:100870001092330310920803DF91CF911F910F91D3
:10088000FF90EF90DF90CF9008959D9191938F5FAF
:1008900075CF85EEB0CF8091040390910503A091B0
:1008A0000603B0910703892B8A2B8B2B09F4A9CF60
:1008B0000E94420200910403109105032091060357
:1008C000309107036C197D098E099F0906171707D8
:1008D0002807390708F095CFC5CF90E080E008954C
:1008E0000F931F93CF938C01C62F0E9486036C2F0A
:1008F0006460C8010E9486036C2F6B7FC8010E9450
:10090000860383EC90E00197F1F7CF911F910F914F
:1009100008950F931F93CF93DF938C01D62FC42F8D
:10092000607F642B0E94700480E1D89FB001112485
:100930006C2BC801DF91CF911F910F910C94700423
:1009400041E00E94890481E090E00895CF93DF9315
:1009500000D000D01F921F92CDB7DEB798E0E7E03D
:10096000F2E0DE01119601900D929A95E1F79091D7
:100970005D03961710F46FEF690F262F30E0220FFA
:10098000331F41E050E04C0F5D1F240F351FF9016C
:100990006081680F606840E085E593E028960FB6B7
:1009A000F894DEBF0FBECDBFDF91CF910C948904C8
:1009B0008F929F92AF92BF920F931F93CF93DF932B
:1009C000CDB7DEB7A1970FB6F894DEBF0FBECDBF8F
:1009D00019A2423008F44AE08E010F5D1F4F842EA9
:1009E000912CB12CA12CA50194010E94D709E62FCE
:1009F000B901CA01EA3044F5E05DD801EE938D01FA
:100A0000232B242B252B79F790E080E0109769F0B9
:100A1000FD0101900020E9F73197AF014A1B5B0B04
:100A2000BD0185E593E00E948901A1960FB6F89477
:100A3000DEBF0FBECDBFDF91CF911F910F91BF9051
:100A4000AF909F908F900895E95CD7CFCF92DF92BF
:100A5000EF92FF926C01990FEE08FF08F7FE16C0A7
:100A600041E06DE285E593E00E94890466277727DF
:100A7000CB016C197D098E099F094AE00E94D804B8
:100A80000196FF90EF90DF90CF9008954AE0C70164
:100A9000B601FF90EF90DF90CF900C94D804FC014A
:100AA00001900020E9F73197AF01481B590BBC01B9
:100AB00085E593E00C94890140E061E085E593E0F1
:100AC0000E9489048BE39FE10197F1F760E080E0E9
:100AD0000E94A604E1E6F3E04481558160817181C2
:100AE00085E593E00E94890163E080E00E94A6040E
:100AF0008DE292E00E944F0563E088E00E94A60428
:100B000080913D0390913E030E94260563E08BE0B7
:100B10000E94A60480914103909142030C94260503
:100B2000CF93DF93EC0188819981009711F00E94A7
:100B30009D0A198218821D821C821B821A82DF91F3
:100B4000CF910895EF92FF920F931F93CF93DF936E
:100B5000EC017B018A0188819981009729F02A8123
:100B60003B812417350788F4B8016F5F7F4F0E94DF
:100B7000260B0097C9F0998388831B830A832C81F5
:100B80003D81232B11F4FC0110821D830C83B701DE
:100B9000888199810E94100CCE01DF91CF911F9125
:100BA0000F91FF90EF900895CE010E949005F4CF31
:100BB00085ED8093BC008091040390910503A09182
:100BC0000603B09107030796A11DB11D23E0B6955A
:100BD000A795979587952A95D1F72091BC0024FD7C
:100BE00003C010920203089540910403509105033D
:100BF0006091060370910703452B462B472B69F341
:100C00000097A105B10541F025E32A95F1F7000011
:100C10000197A109B109E1CF809103030C94DF0290
:100C20001F920F920FB60F9211242F933F938F9321
:100C30009F93AF93BF938091370390913803A09116
:100C40003903B0913A0330912A0323E0230F2D3763
:100C500058F50196A11DB11D20932A0380933703F7
:100C600090933803A0933903B0933A0380912B03F8
:100C700090912C03A0912D03B0912E030196A11DFC
:100C8000B11D80932B0390932C03A0932D03B0935D
:100C90002E03BF91AF919F918F913F912F910F9014
:100CA0000FBE0F901F90189526E8230F0296A11DE6
:100CB000B11DD2CF1F920F920FB60F9211240BB617
:100CC0000F922F933F934F935F936F937F938F93E5
:100CD0009F93AF93BF93EF93FF938091B900887F69
:100CE000803609F44DC008F040C0883209F4A9C02C
:100CF00028F5803109F49DC0C8F4882309F4FBC0AD
:100D0000883009F496C0FF91EF91BF91AF919F9108
:100D10008F917F916F915F914F913F912F910F90A4
:100D20000BBE0F900FBE0F901F901895883109F4DD
:100D300088C0803241F78093000314C0803409F4E6
:100D40009DC040F48033B9F38833E9F68093000303
:100D500085ECB0C0803509F485C0883509F496C0AB
:100D6000883489F60E94D805CECF883909F48CC022
:100D700038F5883729F050F4883611F0803719F6A5
:100D800083E0809302031092DB0257C0883809F495
:100D90007BC0803919F0803809F0B5CF8091DB0233
:100DA000803208F071C0E091DB0281E08E0F809309
:100DB000DB028091BB00F0E0E554FD4F80833DC035
:100DC000803B39F0E0F4803A09F479C0883A09F0C0
:100DD0009ACF84E0809302031092BA021092B90273
:100DE000E0913103F091320319958091B90281119C
:100DF0000FC081E08093B9021092990209C0803C33
:100E000009F4A6CF883C09F4A3CF883B09F07BCF37
:100E1000E091BA0281E08E0F8093BA02F0E0E756CB
:100E2000FD4F80818093BB009091BA028091B902FE
:100E300029C08091DD028093BB0085EC8093BC00CB
:100E400062CF9091FF028091FE02981758F5E091D1
:100E5000FF0281E08E0F8093FF02F0E0E252FD4F2F
:100E60008081E9CFE091FF0281E08E0F8093FF0245
:100E70008091BB00F0E0E252FD4F80839091FF0231
:100E80008091FE029817C8F285E8D8CFE091FF0262
:100E900081E08E0F8093FF028091BB00F0E0E25270
:100EA000FD4F80838091010381115CCF81E08093AD
:100EB000DC0284EA8093BC001092020324CF85EC0C
:100EC0008093BC00109202038091DB02803230F4E8
:100ED000E091DB02F0E0E554FD4F10826091DB020F
:100EE00070E0E0912F03F09130038BEB92E01995C5
:100EF0001092DB0208CF1092000334CFFC01118264
:100F000010821382128215821482FB01019000204C
:100F1000E9F73197AF01461B570B0C94A205E9E4A2
:100F2000F3E01382128288EE93E0A0E0B0E08483C5
:100F30009583A683B78383E192E09183808364E302
:100F400072E087E693E00E947E076DE372E08DE633
:100F500093E00E947E0765E472E083E793E00E94DD
:100F60007E0763E572E089E793E00E947E076EE505
:100F700072E08FE793E00E947E0766E772E081E609
:100F800093E00E947E07E5E5F3E01382128285E29A
:100F900092E0918380838FE3848384E1818784E07E
:100FA000828713860895789484B5826084BD84B561
:100FB000816084BD85B5826085BD85B5816085BD54
:100FC00080916E00816080936E001092810080910C
:100FD0008100826080938100809181008160809394
:100FE0008100809180008160809380008091B100B9
:100FF00084608093B1008091B00081608093B000E4
:101000008091910082608093910080919100816035
:1010100080939100809190008160809390008091F6
:10102000A10082608093A1008091A10081608093E3
:10103000A1008091A00081608093A0008091210197
:101040008260809321018091210181608093210140
:101050008091200181608093200180917A008460DA
:1010600080937A0080917A00826080937A008091E8
:101070007A00816080937A0080917A008068809302
:101080007A001092C10083E00E94680184E00E940F
:10109000680185E00E94680186E00E94680187E09F
:1010A0000E94680188E00E9468018DE00E9468014A
:1010B00086E10E94680160E086E10E94B60160E07E
:1010C00083E00E94B601109236031092350310920D
:1010D0003403109233030E94C10287E891E0909399
:1010E00032038093310388E891E09093300380933A
:1010F0002F0310925A0380915F03823018F098E01A
:1011000090935A0380935D0362E370E080E090E087
:101110000E9467026091600385E593E00E94860368
:1011200068EE73E080E090E00E94670260E385E58E
:1011300093E00E947004CBE4D6E4CE010197F1F76E
:1011400060E385E593E00E9470042197F1F760E386
:1011500085E593E00E94700483E592E00197F1F742
:1011600060E285E593E00E94700460915A0360623A
:1011700040E085E593E00E94890484E080935B036E
:1011800040E06CE085E593E00E94890440E061E086
:1011900085E593E00E948904CBE3DFE1CE0101976E
:1011A000F1F782E080935C0340E066E085E593E040
:1011B0000E94890440E062E085E593E00E94890492
:1011C0002197F1F788E08093600360E085E593E084
:1011D0000E94860361E086E00E94A60485E692E014
:1011E0000E944F0562E086E00E94A6048EE692E02F
:1011F0000E944F0560ED77E080E090E00E9467027A
:101200000E945C05DD24D39400E010E0EE24E3941A
:10121000F12C2FB7F8948091370390913803A09167
:101220003903B0913A032FBF4091450350914603D3
:101230006091470370914803841B950BA60BB70B75
:10124000883E9340A105B10508F449C02FB7F89432
:101250008091370390913803A0913903B0913A03FC
:101260002FBF8093450390934603A0934703B09309
:101270004803C09100026C2F8DE00E94B601CD257D
:10128000C093000280914303909144030196909390
:10129000440380934303809141039091420301965C
:1012A000909342038093410320913F033091400388
:1012B0002F5F3F4F3093400320933F03CC9769F457
:1012C00080913D0390913E03019690933E0380935D
:1012D0003D0310924203109241030E945C05C091AD
:1012E0003D03D0913E03C330D105BCF4F0923C03E2
:1012F000E0923B036091670370916803611571058B
:1013000069F140916B0350916C0381E693E00E9478
:10131000A20561E083E00E94B60123972A9740F579
:1013200061E084E00E94B60161E085E00E94B601C0
:1013300060916D0370916E0361157105A1F040918C
:1013400071035091720381E693E00E94A20501159A
:10135000110509F45ECF0E9400005BCF81E693E0A7
:101360000E949005D6CF81E693E00E949005EFCFD2
:1013700060E083E00E94B601EACFCF93DF938091D3
:10138000610390916203009711F00E949D0AC5E8E5
:10139000D3E0269788819981009711F00E949D0AD9
:1013A00083E0C736D807A9F7DF91CF910895A1E26E
:1013B0001A2EAA1BBB1BFD010DC0AA1FBB1FEE1FCF
:1013C000FF1FA217B307E407F50720F0A21BB30B1A
:1013D000E40BF50B661F771F881F991F1A9469F796
:1013E00060957095809590959B01AC01BD01CF01F2
:1013F0000895EE0FFF1F881F8BBF0790F691E02D19
:1014000019940F931F93CF93DF938230910510F4BB
:1014100082E090E0E0918703F091880330E020E0E3
:10142000B0E0A0E0309799F42115310509F44AC0E5
:10143000281B390B24303105D8F58A819B81611531
:10144000710589F1FB0193838283FE0111C0408104
:1014500051810281138148175907E0F04817590755
:1014600099F4109761F012960C93129713961C93AF
:101470003296CF01DF91CF911F910F910895009384
:10148000870310938803F4CF2115310551F04217DB
:10149000530738F0A901DB019A01BD01DF01F80112
:1014A000C1CFEF01F9CF9093880380938703CDCF0D
:1014B000FE01E20FF31F819391932250310939838A
:1014C0002883D7CF2091850330918603232B41F4C5
:1014D0002091030230910402309386032093850308
:1014E00020910102309102022115310541F42DB7FE
:1014F0003EB74091050250910602241B350BE09146
:101500008503F0918603E217F307A0F42E1B3F0B2F
:101510002817390778F0AC014E5F5F4F2417350765
:1015200048F04E0F5F1F50938603409385038193CD
:1015300091939FCFF0E0E0E09CCFCF93DF930097B3
:10154000E9F0FC01329713821282A0918703B091D7
:101550008803ED0130E020E01097A1F42081318173
:10156000820F931F20918503309186032817390736
:1015700009F061C0F0938603E0938503DF91CF917A
:101580000895EA01CE17DF07E8F54A815B819E01E5
:1015900041155105B1F7E901FB83EA83499159915E
:1015A000C40FD51FEC17FD0761F48081918102966D
:1015B000840F951FE90199838883828193819B839E
:1015C0008A83F0E0E0E012968D919C91139700974A
:1015D000B9F52D913C911197CD010296820F931F81
:1015E00020918503309186032817390739F6309703
:1015F00051F51092880310928703B0938603A0934D
:101600008503BCCFD383C28340815181840F951F52
:10161000C817D90761F44E5F5F4F88819981480FE1
:10162000591F518340838A819B8193838283211533
:10163000310509F0B0CFF0938803E09387039ECF84
:10164000FD01DC01C0CF13821282D7CF4F925F928F
:101650006F927F928F929F92AF92BF92CF92DF92C2
:10166000EF92FF920F931F93CF93DF938C0100971C
:1016700099F4CB01DF91CF911F910F91FF90EF90E3
:10168000DF90CF90BF90AF909F908F907F906F90A2
:101690005F904F900C94010AFC01E60FF71F9C012C
:1016A00022503109E217F30708F4AEC0D901CD91F9
:1016B000DC911197C617D70720F1C530D10578F016
:1016C000CE0104978617970750F0C61BD70B2297B9
:1016D000C193D1936D937C93CF010E949D0AC80161
:1016E000DF91CF911F910F91FF90EF90DF90CF90FE
:1016F000BF90AF909F908F907F906F905F904F9032
:1017000008955B01AC1ABD0A4C018C0E9D1EA09180
:101710008703B0918803512C412CF12CE12C1097B8
:1017200031F580918503909186038815990509F01C
:101730005CC04616570608F058C08091010290918F
:101740000202009741F48DB79EB740910502509177
:101750000602841B950BE817F90708F055C0F093B3
:101760008603E0938503F90171836083B8CF8D917F
:101770009C91119712966C90129713967C901397E8
:10178000A815B90559F56C0142E0C40ED11CCA1464
:10179000DB0420F1AC014A195B09DA0112961597B6
:1017A00080F06282738251834083D9016D937C9370
:1017B000E114F10471F0D7011396FC93EE931297A4
:1017C0008ECF22968C0F9D1FF90191838083F301A8
:1017D000EFCFF0938803E093870381CF4816590633
:1017E00008F42C017D01D3019ACFCB010E94010A9C
:1017F0007C01009749F0AE01B8010E94070CC801B6
:101800000E949D0A87016BCF10E000E068CFFB01CA
:10181000DC0102C001900D9241505040D8F708956C
:10182000FB01DC0101900D920020E1F7089511E029
:10183000C4E3D1E000E006C0802FFE010E94F90958
:101840002196011DC533D10780E00807A9F7F89458
:02185000FFCFC8
:1018520001000089038000000040001400540000D1
:1018620000000057032A036D040003230310030141
:101872000300000000A00489016D04990254494547
:101882004D504F004C4C454E414E444F004C41563A
:10189200414E444F0043454E545249465547414EEE
:1018A200444F00454E4A554147414E444F0045532F
:1018B20050455241004C415641444F524100564519
:0818C200522020312E300000FD
:00000001FF
